{
    "_format": "hh-sol-artifact-1",
    "contractName": "Payments",
    "sourceName": "contracts/Payments.sol",
    "abi": [
        {
            "inputs": [],
            "stateMutability": "nonpayable",
            "type": "constructor"
        },
        {
            "anonymous": false,
            "inputs": [
                {
                    "indexed": false,
                    "internalType": "address",
                    "name": "",
                    "type": "address"
                },
                {
                    "indexed": false,
                    "internalType": "string",
                    "name": "",
                    "type": "string"
                },
                {
                    "indexed": false,
                    "internalType": "uint256",
                    "name": "",
                    "type": "uint256"
                }
            ],
            "name": "Pay",
            "type": "event"
        },
        {
            "stateMutability": "payable",
            "type": "fallback"
        },
        {
            "inputs": [
                {
                    "internalType": "string",
                    "name": "id",
                    "type": "string"
                },
                {
                    "internalType": "uint256",
                    "name": "value",
                    "type": "uint256"
                }
            ],
            "name": "pay",
            "outputs": [],
            "stateMutability": "payable",
            "type": "function"
        },
        {
            "inputs": [
                {
                    "internalType": "address",
                    "name": "buyer",
                    "type": "address"
                }
            ],
            "name": "paymentOf",
            "outputs": [
                {
                    "internalType": "uint256",
                    "name": "",
                    "type": "uint256"
                }
            ],
            "stateMutability": "view",
            "type": "function"
        },
        {
            "inputs": [
                {
                    "internalType": "address",
                    "name": "buyer",
                    "type": "address"
                },
                {
                    "internalType": "uint256",
                    "name": "index",
                    "type": "uint256"
                }
            ],
            "name": "paymentOfAt",
            "outputs": [
                {
                    "internalType": "string",
                    "name": "id",
                    "type": "string"
                },
                {
                    "internalType": "uint256",
                    "name": "amount",
                    "type": "uint256"
                },
                {
                    "internalType": "uint256",
                    "name": "date",
                    "type": "uint256"
                }
            ],
            "stateMutability": "view",
            "type": "function"
        },
        {
            "inputs": [],
            "name": "withdraw",
            "outputs": [],
            "stateMutability": "payable",
            "type": "function"
        },
        {
            "stateMutability": "payable",
            "type": "receive"
        }
    ],
    "bytecode": "0x608060405234801561001057600080fd5b50336000806101000a81548173ffffffffffffffffffffffffffffffffffffffff021916908373ffffffffffffffffffffffffffffffffffffffff160217905550610d4a806100606000396000f3fe6080604052600436106100435760003560e01c80633ccfd60b1461013c578063901c595314610146578063c82132df14610162578063cf7c2b31146101a1576100f4565b366100f4576000341161008b576040517f08c379a000000000000000000000000000000000000000000000000000000000815260040161008290610aaf565b60405180910390fd5b60008054906101000a900473ffffffffffffffffffffffffffffffffffffffff1673ffffffffffffffffffffffffffffffffffffffff166108fc349081150290604051600060405180830381858888f193505050501580156100f1573d6000803e3d6000fd5b50005b6000803690501461013a576040517f08c379a000000000000000000000000000000000000000000000000000000000815260040161013190610a8f565b60405180910390fd5b005b6101446101de565b005b610160600480360381019061015b91906107dc565b6102d5565b005b34801561016e57600080fd5b50610189600480360381019061018491906107a0565b61040c565b60405161019893929190610a51565b60405180910390f35b3480156101ad57600080fd5b506101c860048036038101906101c39190610777565b6105f6565b6040516101d59190610b2f565b60405180910390f35b60008054906101000a900473ffffffffffffffffffffffffffffffffffffffff1673ffffffffffffffffffffffffffffffffffffffff163373ffffffffffffffffffffffffffffffffffffffff161461026c576040517f08c379a000000000000000000000000000000000000000000000000000000000815260040161026390610acf565b60405180910390fd5b60008054906101000a900473ffffffffffffffffffffffffffffffffffffffff1673ffffffffffffffffffffffffffffffffffffffff166108fc479081150290604051600060405180830381858888f193505050501580156102d2573d6000803e3d6000fd5b50565b803414610317576040517f08c379a000000000000000000000000000000000000000000000000000000000815260040161030e90610b0f565b60405180910390fd5b600160003373ffffffffffffffffffffffffffffffffffffffff1673ffffffffffffffffffffffffffffffffffffffff168152602001908152602001600020604051806060016040528084815260200134815260200142815250908060018154018082558091505060019003906000526020600020906003020160009091909190915060008201518160000190805190602001906103b6929190610642565b50602082015181600101556040820151816002015550507fedb2d488b5a4c501267ba2e720a5ba0d7817100bd7c5687c4a3c8f1e5a20e08533833460405161040093929190610a13565b60405180910390a15050565b60606000806000600160008773ffffffffffffffffffffffffffffffffffffffff1673ffffffffffffffffffffffffffffffffffffffff168152602001908152602001600020805480602002602001604051908101604052809291908181526020016000905b8282101561054a57838290600052602060002090600302016040518060600160405290816000820180546104a590610c45565b80601f01602080910402602001604051908101604052809291908181526020018280546104d190610c45565b801561051e5780601f106104f35761010080835404028352916020019161051e565b820191906000526020600020905b81548152906001019060200180831161050157829003601f168201915b505050505081526020016001820154815260200160028201548152505081526020019060010190610472565b50505050905084815111610593576040517f08c379a000000000000000000000000000000000000000000000000000000000815260040161058a90610aef565b60405180910390fd5b60008186815181106105ce577f4e487b7100000000000000000000000000000000000000000000000000000000600052603260045260246000fd5b6020026020010151905080600001518160200151826040015194509450945050509250925092565b6000600160008373ffffffffffffffffffffffffffffffffffffffff1673ffffffffffffffffffffffffffffffffffffffff168152602001908152602001600020805490509050919050565b82805461064e90610c45565b90600052602060002090601f01602090048101928261067057600085556106b7565b82601f1061068957805160ff19168380011785556106b7565b828001600101855582156106b7579182015b828111156106b657825182559160200191906001019061069b565b5b5090506106c491906106c8565b5090565b5b808211156106e15760008160009055506001016106c9565b5090565b60006106f86106f384610b7b565b610b4a565b90508281526020810184848401111561071057600080fd5b61071b848285610c03565b509392505050565b60008135905061073281610ce6565b92915050565b600082601f83011261074957600080fd5b81356107598482602086016106e5565b91505092915050565b60008135905061077181610cfd565b92915050565b60006020828403121561078957600080fd5b600061079784828501610723565b91505092915050565b600080604083850312156107b357600080fd5b60006107c185828601610723565b92505060206107d285828601610762565b9150509250929050565b600080604083850312156107ef57600080fd5b600083013567ffffffffffffffff81111561080957600080fd5b61081585828601610738565b925050602061082685828601610762565b9150509250929050565b61083981610bc7565b82525050565b600061084a82610bab565b6108548185610bb6565b9350610864818560208601610c12565b61086d81610cd5565b840191505092915050565b6000610885602283610bb6565b91507f5468652063616c6c65642066756e6374696f6e20646f6573206e6f742065786960008301527f73740000000000000000000000000000000000000000000000000000000000006020830152604082019050919050565b60006108eb601583610bb6565b91507f546865207472616e73616374696f6e2076616c756500000000000000000000006000830152602082019050919050565b600061092b601e83610bb6565b91507f4f6e6c79206f776e6572732063616e2077697468647261772066756e647300006000830152602082019050919050565b600061096b601783610bb6565b91507f5061796d656e7420646f6573206e6f742065786973742e0000000000000000006000830152602082019050919050565b60006109ab603083610bb6565b91507f546865205061796d656e7420646f6573206e6f74206d6174636820746865207460008301527f72616e73616374696f6e2076616c7565000000000000000000000000000000006020830152604082019050919050565b610a0d81610bf9565b82525050565b6000606082019050610a286000830186610830565b8181036020830152610a3a818561083f565b9050610a496040830184610a04565b949350505050565b60006060820190508181036000830152610a6b818661083f565b9050610a7a6020830185610a04565b610a876040830184610a04565b949350505050565b60006020820190508181036000830152610aa881610878565b9050919050565b60006020820190508181036000830152610ac8816108de565b9050919050565b60006020820190508181036000830152610ae88161091e565b9050919050565b60006020820190508181036000830152610b088161095e565b9050919050565b60006020820190508181036000830152610b288161099e565b9050919050565b6000602082019050610b446000830184610a04565b92915050565b6000604051905081810181811067ffffffffffffffff82111715610b7157610b70610ca6565b5b8060405250919050565b600067ffffffffffffffff821115610b9657610b95610ca6565b5b601f19601f8301169050602081019050919050565b600081519050919050565b600082825260208201905092915050565b6000610bd282610bd9565b9050919050565b600073ffffffffffffffffffffffffffffffffffffffff82169050919050565b6000819050919050565b82818337600083830152505050565b60005b83811015610c30578082015181840152602081019050610c15565b83811115610c3f576000848401525b50505050565b60006002820490506001821680610c5d57607f821691505b60208210811415610c7157610c70610c77565b5b50919050565b7f4e487b7100000000000000000000000000000000000000000000000000000000600052602260045260246000fd5b7f4e487b7100000000000000000000000000000000000000000000000000000000600052604160045260246000fd5b6000601f19601f8301169050919050565b610cef81610bc7565b8114610cfa57600080fd5b50565b610d0681610bf9565b8114610d1157600080fd5b5056fea26469706673582212208e107afa50553675b5d3ef27ec175cb4a61d2c983e771c534be2b24e70126efc64736f6c63430008000033",
    "linkReferences": {},
    "deployedLinkReferences": {}
}